:100000000C9434000C94D8000C943E000C943E00E8
:100010000C943E000C943E000C943E000C943E0068
:100020000C943E000C943E000C943E000C943E0058
:100030000C943E000C943E000C943E000C943E0048
:100040000C943E000C943E000C943E000C943E0038
:100050000C943E000C943E000C943E000C943E0028
:100060000C943E000C943E0011241FBECFEFD8E04C
:10007000DEBFCDBF0E9440000C94E7000C9400004E
:100080005298259A249A579A5F9A71E07DBB72E044
:1000900070936900789451E05093B9005CE05093FC
:1000A000B80054E05093BC00222733275ED025D0FF
:1000B000B0E92BD034D029D03AD0219A29984BD00E
:1000C000299A21981999FECF199BFECF1999FECF35
:1000D00032D0322F30D02FD02E3138F4203038F4B7
:1000E000383248F4343128F4E1CF2D9AF9CF2D98E5
:1000F000F7CF2C9ADBCF2C98D9CF54EA5093BC0081
:100100005091BC0057FFFCCF0895B093BB0054E85A
:100110005093BC005091BC0057FFFCCF08955BB1D9
:100120005078503811F0B22F0895B32F089554E944
:100130005093BC00089518E02227199BFECF2AD0C7
:10014000199B03C00894221F01C0220F1999FECFEA
:100150001A9599F708955FEF62ED72E07A95F1F7DD
:100160006A95D9F75A95C1F7089545E840938500F7
:100170004DEE4093840040E04093800045E0409382
:10018000810046B340FFFDCF41E046BB40E04093D5
:1001900081000895442746BD44E647BD4AE045BD79
:1001A00045B341FFFDCF442745BD42E045BB08951F
:1001B0001F920F920FB60F9211248F938BB180581C
:1001C0008BB98F910F900FBE0F901F901895F894D8
:0201D000FFCF5F
:00000001FF
