:100000000C9434000C943E000C943E000C943E0082
:100010000C943E000C943E000C943E000C943E0068
:100020000C943E000C943E000C943E000C943E0058
:100030000C943E000C943E000C943E000C943E0048
:100040000C943E000C943E000C943E000C943E0038
:100050000C943E000C943E000C943E000C943E0028
:100060000C943E000C943E0011241FBECFEFD8E04C
:10007000DEBFCDBF0E9440000C94AD000C94000088
:1000800088278093C0008093C50087E68093C400D2
:1000900088E18093C10086E08093C200789448D0C4
:1000A0002ED037D03BD019D0FACFB091C000B5FFD9
:1000B000FCCF0895702F007F0295005DC02FCA53BA
:1000C0000AF40895095FFDCF072F0F70005DC02F60
:1000D000CA530AF40895095FFDCF0B2FEBDFE5DF6C
:1000E0000093C600F1DFE1DF0093C600DEDF0AE027
:1000F0000093C600DADF0DE00093C600089550E9D2
:100100005093BA0054E05093BC0054EC5093BC00A0
:1001100008955091BC0057FFFCCF089554EC5093C4
:10012000BC005091BC0057FFFCCFB091BB000895BC
:1001300045E8409385004DEE4093840040E04093B5
:10014000800045E04093810046B340FFFDCF41E091
:0E01500046BB40E0409381000895F894FFCF35
:00000001FF
